{
  "contractName": "DevToken",
  "abi": [
    {
      "inputs": [
        {
          "internalType": "string",
          "name": "token_name",
          "type": "string"
        },
        {
          "internalType": "string",
          "name": "short_symbol",
          "type": "string"
        },
        {
          "internalType": "uint8",
          "name": "token_decimals",
          "type": "uint8"
        },
        {
          "internalType": "uint256",
          "name": "token_totalSupply",
          "type": "uint256"
        }
      ],
      "stateMutability": "nonpayable",
      "type": "constructor"
    },
    {
      "anonymous": false,
      "inputs": [
        {
          "indexed": true,
          "internalType": "address",
          "name": "owner",
          "type": "address"
        },
        {
          "indexed": true,
          "internalType": "address",
          "name": "spender",
          "type": "address"
        },
        {
          "indexed": false,
          "internalType": "uint256",
          "name": "value",
          "type": "uint256"
        }
      ],
      "name": "Approval",
      "type": "event"
    },
    {
      "anonymous": false,
      "inputs": [
        {
          "indexed": true,
          "internalType": "address",
          "name": "previousOwner",
          "type": "address"
        },
        {
          "indexed": true,
          "internalType": "address",
          "name": "newOwner",
          "type": "address"
        }
      ],
      "name": "OwnershipTransferred",
      "type": "event"
    },
    {
      "anonymous": false,
      "inputs": [
        {
          "indexed": true,
          "internalType": "address",
          "name": "user",
          "type": "address"
        },
        {
          "indexed": false,
          "internalType": "uint256",
          "name": "amount",
          "type": "uint256"
        },
        {
          "indexed": false,
          "internalType": "uint256",
          "name": "index",
          "type": "uint256"
        },
        {
          "indexed": false,
          "internalType": "uint256",
          "name": "timestamp",
          "type": "uint256"
        }
      ],
      "name": "Staked",
      "type": "event"
    },
    {
      "anonymous": false,
      "inputs": [
        {
          "indexed": true,
          "internalType": "address",
          "name": "from",
          "type": "address"
        },
        {
          "indexed": true,
          "internalType": "address",
          "name": "to",
          "type": "address"
        },
        {
          "indexed": false,
          "internalType": "uint256",
          "name": "value",
          "type": "uint256"
        }
      ],
      "name": "Transfer",
      "type": "event"
    },
    {
      "inputs": [
        {
          "internalType": "address",
          "name": "_staker",
          "type": "address"
        }
      ],
      "name": "hasStake",
      "outputs": [
        {
          "components": [
            {
              "internalType": "uint256",
              "name": "total_amount",
              "type": "uint256"
            },
            {
              "components": [
                {
                  "internalType": "address",
                  "name": "user",
                  "type": "address"
                },
                {
                  "internalType": "uint256",
                  "name": "amount",
                  "type": "uint256"
                },
                {
                  "internalType": "uint256",
                  "name": "since",
                  "type": "uint256"
                },
                {
                  "internalType": "uint256",
                  "name": "claimable",
                  "type": "uint256"
                }
              ],
              "internalType": "struct Stakeable.Stake[]",
              "name": "stakes",
              "type": "tuple[]"
            }
          ],
          "internalType": "struct Stakeable.StakingSummary",
          "name": "",
          "type": "tuple"
        }
      ],
      "stateMutability": "view",
      "type": "function"
    },
    {
      "inputs": [],
      "name": "owner",
      "outputs": [
        {
          "internalType": "address",
          "name": "",
          "type": "address"
        }
      ],
      "stateMutability": "view",
      "type": "function"
    },
    {
      "inputs": [],
      "name": "renounceOwnership",
      "outputs": [],
      "stateMutability": "nonpayable",
      "type": "function"
    },
    {
      "inputs": [
        {
          "internalType": "address",
          "name": "newOwner",
          "type": "address"
        }
      ],
      "name": "transferOwnership",
      "outputs": [],
      "stateMutability": "nonpayable",
      "type": "function"
    },
    {
      "inputs": [],
      "name": "decimals",
      "outputs": [
        {
          "internalType": "uint8",
          "name": "",
          "type": "uint8"
        }
      ],
      "stateMutability": "view",
      "type": "function"
    },
    {
      "inputs": [],
      "name": "symbol",
      "outputs": [
        {
          "internalType": "string",
          "name": "",
          "type": "string"
        }
      ],
      "stateMutability": "view",
      "type": "function"
    },
    {
      "inputs": [],
      "name": "name",
      "outputs": [
        {
          "internalType": "string",
          "name": "",
          "type": "string"
        }
      ],
      "stateMutability": "view",
      "type": "function"
    },
    {
      "inputs": [],
      "name": "totalSupply",
      "outputs": [
        {
          "internalType": "uint256",
          "name": "",
          "type": "uint256"
        }
      ],
      "stateMutability": "view",
      "type": "function"
    },
    {
      "inputs": [
        {
          "internalType": "address",
          "name": "account",
          "type": "address"
        }
      ],
      "name": "balanceOf",
      "outputs": [
        {
          "internalType": "uint256",
          "name": "",
          "type": "uint256"
        }
      ],
      "stateMutability": "view",
      "type": "function"
    },
    {
      "inputs": [
        {
          "internalType": "address",
          "name": "account",
          "type": "address"
        },
        {
          "internalType": "uint256",
          "name": "amount",
          "type": "uint256"
        }
      ],
      "name": "burn",
      "outputs": [
        {
          "internalType": "bool",
          "name": "",
          "type": "bool"
        }
      ],
      "stateMutability": "nonpayable",
      "type": "function"
    },
    {
      "inputs": [
        {
          "internalType": "address",
          "name": "account",
          "type": "address"
        },
        {
          "internalType": "uint256",
          "name": "amount",
          "type": "uint256"
        }
      ],
      "name": "mint",
      "outputs": [
        {
          "internalType": "bool",
          "name": "",
          "type": "bool"
        }
      ],
      "stateMutability": "nonpayable",
      "type": "function"
    },
    {
      "inputs": [
        {
          "internalType": "address",
          "name": "recipient",
          "type": "address"
        },
        {
          "internalType": "uint256",
          "name": "amount",
          "type": "uint256"
        }
      ],
      "name": "transfer",
      "outputs": [
        {
          "internalType": "bool",
          "name": "",
          "type": "bool"
        }
      ],
      "stateMutability": "nonpayable",
      "type": "function"
    },
    {
      "inputs": [],
      "name": "getOwner",
      "outputs": [
        {
          "internalType": "address",
          "name": "",
          "type": "address"
        }
      ],
      "stateMutability": "view",
      "type": "function"
    },
    {
      "inputs": [
        {
          "internalType": "address",
          "name": "owner",
          "type": "address"
        },
        {
          "internalType": "address",
          "name": "spender",
          "type": "address"
        }
      ],
      "name": "allowance",
      "outputs": [
        {
          "internalType": "uint256",
          "name": "",
          "type": "uint256"
        }
      ],
      "stateMutability": "view",
      "type": "function"
    },
    {
      "inputs": [
        {
          "internalType": "address",
          "name": "spender",
          "type": "address"
        },
        {
          "internalType": "uint256",
          "name": "amount",
          "type": "uint256"
        }
      ],
      "name": "approve",
      "outputs": [
        {
          "internalType": "bool",
          "name": "",
          "type": "bool"
        }
      ],
      "stateMutability": "nonpayable",
      "type": "function"
    },
    {
      "inputs": [
        {
          "internalType": "address",
          "name": "spender",
          "type": "address"
        },
        {
          "internalType": "address",
          "name": "recipient",
          "type": "address"
        },
        {
          "internalType": "uint256",
          "name": "amount",
          "type": "uint256"
        }
      ],
      "name": "transferFrom",
      "outputs": [
        {
          "internalType": "bool",
          "name": "",
          "type": "bool"
        }
      ],
      "stateMutability": "nonpayable",
      "type": "function"
    },
    {
      "inputs": [
        {
          "internalType": "address",
          "name": "spender",
          "type": "address"
        },
        {
          "internalType": "uint256",
          "name": "amount",
          "type": "uint256"
        }
      ],
      "name": "increaseAllowance",
      "outputs": [
        {
          "internalType": "bool",
          "name": "",
          "type": "bool"
        }
      ],
      "stateMutability": "nonpayable",
      "type": "function"
    },
    {
      "inputs": [
        {
          "internalType": "address",
          "name": "spender",
          "type": "address"
        },
        {
          "internalType": "uint256",
          "name": "amount",
          "type": "uint256"
        }
      ],
      "name": "decreaseAllowance",
      "outputs": [
        {
          "internalType": "bool",
          "name": "",
          "type": "bool"
        }
      ],
      "stateMutability": "nonpayable",
      "type": "function"
    },
    {
      "inputs": [
        {
          "internalType": "uint256",
          "name": "_amount",
          "type": "uint256"
        }
      ],
      "name": "stake",
      "outputs": [],
      "stateMutability": "nonpayable",
      "type": "function"
    },
    {
      "inputs": [
        {
          "internalType": "uint256",
          "name": "amount",
          "type": "uint256"
        },
        {
          "internalType": "uint256",
          "name": "stake_index",
          "type": "uint256"
        }
      ],
      "name": "withdrawStake",
      "outputs": [],
      "stateMutability": "nonpayable",
      "type": "function"
    }
  ],
  "bytecode": "0x60806040526103e86003553480156200001757600080fd5b50604051620034003803806200340083398181016040528101906200003d9190620004e9565b336000806101000a81548173ffffffffffffffffffffffffffffffffffffffff021916908373ffffffffffffffffffffffffffffffffffffffff16021790555060008054906101000a900473ffffffffffffffffffffffffffffffffffffffff1673ffffffffffffffffffffffffffffffffffffffff16600073ffffffffffffffffffffffffffffffffffffffff167f8be0079c531659141344cd1fd0a4f28419497f9722a3daafe3b4186f6b6457e060405160405180910390a3600180816001815401808255809150500390600052602060002090505083600790805190602001906200012d92919062000223565b5082600690805190602001906200014692919062000223565b5081600560006101000a81548160ff021916908360ff16021790555080600481905550600454600860003373ffffffffffffffffffffffffffffffffffffffff1673ffffffffffffffffffffffffffffffffffffffff168152602001908152602001600020819055503373ffffffffffffffffffffffffffffffffffffffff16600073ffffffffffffffffffffffffffffffffffffffff167fddf252ad1be2c89b69c2b068fc378daa952ba7f163c4a11628f55a4df523b3ef600454604051620002119190620005aa565b60405180910390a3505050506200062c565b8280546200023190620005f6565b90600052602060002090601f016020900481019282620002555760008555620002a1565b82601f106200027057805160ff1916838001178555620002a1565b82800160010185558215620002a1579182015b82811115620002a057825182559160200191906001019062000283565b5b509050620002b09190620002b4565b5090565b5b80821115620002cf576000816000905550600101620002b5565b5090565b6000604051905090565b600080fd5b600080fd5b600080fd5b600080fd5b6000601f19601f8301169050919050565b7f4e487b7100000000000000000000000000000000000000000000000000000000600052604160045260246000fd5b6200033c82620002f1565b810181811067ffffffffffffffff821117156200035e576200035d62000302565b5b80604052505050565b600062000373620002d3565b905062000381828262000331565b919050565b600067ffffffffffffffff821115620003a457620003a362000302565b5b620003af82620002f1565b9050602081019050919050565b60005b83811015620003dc578082015181840152602081019050620003bf565b83811115620003ec576000848401525b50505050565b600062000409620004038462000386565b62000367565b905082815260208101848484011115620004285762000427620002ec565b5b62000435848285620003bc565b509392505050565b600082601f830112620004555762000454620002e7565b5b815162000467848260208601620003f2565b91505092915050565b600060ff82169050919050565b620004888162000470565b81146200049457600080fd5b50565b600081519050620004a8816200047d565b92915050565b6000819050919050565b620004c381620004ae565b8114620004cf57600080fd5b50565b600081519050620004e381620004b8565b92915050565b60008060008060808587031215620005065762000505620002dd565b5b600085015167ffffffffffffffff811115620005275762000526620002e2565b5b62000535878288016200043d565b945050602085015167ffffffffffffffff811115620005595762000558620002e2565b5b62000567878288016200043d565b93505060406200057a8782880162000497565b92505060606200058d87828801620004d2565b91505092959194509250565b620005a481620004ae565b82525050565b6000602082019050620005c1600083018462000599565b92915050565b7f4e487b7100000000000000000000000000000000000000000000000000000000600052602260045260246000fd5b600060028204905060018216806200060f57607f821691505b60208210811415620006265762000625620005c7565b5b50919050565b612dc4806200063c6000396000f3fe608060405234801561001057600080fd5b506004361061012c5760003560e01c80638da5cb5b116100ad578063a9059cbb11610071578063a9059cbb1461035b578063dd62ed3e1461038b578063e73e14bf146103bb578063f1fdf469146103eb578063f2fde38b146104075761012c565b80638da5cb5b146102a357806395d89b41146102c15780639dc29fac146102df578063a457c2d71461030f578063a694fc3a1461033f5761012c565b806339509351116100f457806339509351146101eb57806340c10f191461021b57806370a082311461024b578063715018a61461027b578063893d20e8146102855761012c565b806306fdde0314610131578063095ea7b31461014f57806318160ddd1461017f57806323b872dd1461019d578063313ce567146101cd575b600080fd5b610139610423565b6040516101469190611f14565b60405180910390f35b61016960048036038101906101649190611fcf565b6104b5565b604051610176919061202a565b60405180910390f35b6101876104cc565b6040516101949190612054565b60405180910390f35b6101b760048036038101906101b2919061206f565b6104d6565b6040516101c4919061202a565b60405180910390f35b6101d561063f565b6040516101e291906120de565b60405180910390f35b61020560048036038101906102009190611fcf565b610656565b604051610212919061202a565b60405180910390f35b61023560048036038101906102309190611fcf565b6106f4565b604051610242919061202a565b60405180910390f35b610265600480360381019061026091906120f9565b610798565b6040516102729190612054565b60405180910390f35b6102836107e1565b005b61028d61092d565b60405161029a9190612135565b60405180910390f35b6102ab61093c565b6040516102b89190612135565b60405180910390f35b6102c9610965565b6040516102d69190611f14565b60405180910390f35b6102f960048036038101906102f49190611fcf565b6109f7565b604051610306919061202a565b60405180910390f35b61032960048036038101906103249190611fcf565b610a9b565b604051610336919061202a565b60405180910390f35b61035960048036038101906103549190612150565b610b39565b005b61037560048036038101906103709190611fcf565b610bd0565b604051610382919061202a565b60405180910390f35b6103a560048036038101906103a0919061217d565b610be7565b6040516103b29190612054565b60405180910390f35b6103d560048036038101906103d091906120f9565b610c6e565b6040516103e2919061231c565b60405180910390f35b6104056004803603810190610400919061233e565b610e7b565b005b610421600480360381019061041c91906120f9565b610e98565b005b606060078054610432906123ad565b80601f016020809104026020016040519081016040528092919081815260200182805461045e906123ad565b80156104ab5780601f10610480576101008083540402835291602001916104ab565b820191906000526020600020905b81548152906001019060200180831161048e57829003601f168201915b5050505050905090565b60006104c2338484610f32565b6001905092915050565b6000600454905090565b600081600960008673ffffffffffffffffffffffffffffffffffffffff1673ffffffffffffffffffffffffffffffffffffffff16815260200190815260200160002060003373ffffffffffffffffffffffffffffffffffffffff1673ffffffffffffffffffffffffffffffffffffffff168152602001908152602001600020541015610597576040517f08c379a000000000000000000000000000000000000000000000000000000000815260040161058e90612451565b60405180910390fd5b6105a28484846110fd565b610634843384600960008973ffffffffffffffffffffffffffffffffffffffff1673ffffffffffffffffffffffffffffffffffffffff16815260200190815260200160002060003373ffffffffffffffffffffffffffffffffffffffff1673ffffffffffffffffffffffffffffffffffffffff1681526020019081526020016000205461062f91906124a0565b610f32565b600190509392505050565b6000600560009054906101000a900460ff16905090565b60006106ea338484600960003373ffffffffffffffffffffffffffffffffffffffff1673ffffffffffffffffffffffffffffffffffffffff16815260200190815260200160002060008873ffffffffffffffffffffffffffffffffffffffff1673ffffffffffffffffffffffffffffffffffffffff168152602001908152602001600020546106e591906124d4565b610f32565b6001905092915050565b60003373ffffffffffffffffffffffffffffffffffffffff1660008054906101000a900473ffffffffffffffffffffffffffffffffffffffff1673ffffffffffffffffffffffffffffffffffffffff1614610784576040517f08c379a000000000000000000000000000000000000000000000000000000000815260040161077b9061259c565b60405180910390fd5b61078e83836113e5565b6001905092915050565b6000600860008373ffffffffffffffffffffffffffffffffffffffff1673ffffffffffffffffffffffffffffffffffffffff168152602001908152602001600020549050919050565b3373ffffffffffffffffffffffffffffffffffffffff1660008054906101000a900473ffffffffffffffffffffffffffffffffffffffff1673ffffffffffffffffffffffffffffffffffffffff161461086f576040517f08c379a00000000000000000000000000000000000000000000000000000000081526004016108669061259c565b60405180910390fd5b600073ffffffffffffffffffffffffffffffffffffffff1660008054906101000a900473ffffffffffffffffffffffffffffffffffffffff1673ffffffffffffffffffffffffffffffffffffffff167f8be0079c531659141344cd1fd0a4f28419497f9722a3daafe3b4186f6b6457e060405160405180910390a360008060006101000a81548173ffffffffffffffffffffffffffffffffffffffff021916908373ffffffffffffffffffffffffffffffffffffffff160217905550565b600061093761093c565b905090565b60008060009054906101000a900473ffffffffffffffffffffffffffffffffffffffff16905090565b606060068054610974906123ad565b80601f01602080910402602001604051908101604052809291908181526020018280546109a0906123ad565b80156109ed5780601f106109c2576101008083540402835291602001916109ed565b820191906000526020600020905b8154815290600101906020018083116109d057829003601f168201915b5050505050905090565b60003373ffffffffffffffffffffffffffffffffffffffff1660008054906101000a900473ffffffffffffffffffffffffffffffffffffffff1673ffffffffffffffffffffffffffffffffffffffff1614610a87576040517f08c379a0000000000000000000000000000000000000000000000000000000008152600401610a7e9061259c565b60405180910390fd5b610a918383611561565b6001905092915050565b6000610b2f338484600960003373ffffffffffffffffffffffffffffffffffffffff1673ffffffffffffffffffffffffffffffffffffffff16815260200190815260200160002060008873ffffffffffffffffffffffffffffffffffffffff1673ffffffffffffffffffffffffffffffffffffffff16815260200190815260200160002054610b2a91906124a0565b610f32565b6001905092915050565b600860003373ffffffffffffffffffffffffffffffffffffffff1673ffffffffffffffffffffffffffffffffffffffff168152602001908152602001600020548110610bba576040517f08c379a0000000000000000000000000000000000000000000000000000000008152600401610bb19061262e565b60405180910390fd5b610bc38161175f565b610bcd3382611561565b50565b6000610bdd3384846110fd565b6001905092915050565b6000600960008473ffffffffffffffffffffffffffffffffffffffff1673ffffffffffffffffffffffffffffffffffffffff16815260200190815260200160002060008373ffffffffffffffffffffffffffffffffffffffff1673ffffffffffffffffffffffffffffffffffffffff16815260200190815260200160002054905092915050565b610c76611e61565b6000806040518060400160405280600081526020016001600260008873ffffffffffffffffffffffffffffffffffffffff1673ffffffffffffffffffffffffffffffffffffffff1681526020019081526020016000205481548110610cde57610cdd61264e565b5b9060005260206000209060020201600101805480602002602001604051908101604052809291908181526020016000905b82821015610db557838290600052602060002090600402016040518060800160405290816000820160009054906101000a900473ffffffffffffffffffffffffffffffffffffffff1673ffffffffffffffffffffffffffffffffffffffff1673ffffffffffffffffffffffffffffffffffffffff168152602001600182015481526020016002820154815260200160038201548152505081526020019060010190610d0f565b50505050815250905060005b816020015151811015610e66576000610df783602001518381518110610dea57610de961264e565b5b6020026020010151611944565b90508083602001518381518110610e1157610e1061264e565b5b6020026020010151606001818152505082602001518281518110610e3857610e3761264e565b5b60200260200101516020015184610e4f91906124d4565b935050600181610e5f91906124d4565b9050610dc1565b50818160000181815250508092505050919050565b6000610e878383611986565b9050610e9333826113e5565b505050565b3373ffffffffffffffffffffffffffffffffffffffff1660008054906101000a900473ffffffffffffffffffffffffffffffffffffffff1673ffffffffffffffffffffffffffffffffffffffff1614610f26576040517f08c379a0000000000000000000000000000000000000000000000000000000008152600401610f1d9061259c565b60405180910390fd5b610f2f81611c4f565b50565b600073ffffffffffffffffffffffffffffffffffffffff168373ffffffffffffffffffffffffffffffffffffffff161415610fa2576040517f08c379a0000000000000000000000000000000000000000000000000000000008152600401610f99906126ef565b60405180910390fd5b600073ffffffffffffffffffffffffffffffffffffffff168273ffffffffffffffffffffffffffffffffffffffff161415611012576040517f08c379a000000000000000000000000000000000000000000000000000000000815260040161100990612781565b60405180910390fd5b80600960008573ffffffffffffffffffffffffffffffffffffffff1673ffffffffffffffffffffffffffffffffffffffff16815260200190815260200160002060008473ffffffffffffffffffffffffffffffffffffffff1673ffffffffffffffffffffffffffffffffffffffff168152602001908152602001600020819055508173ffffffffffffffffffffffffffffffffffffffff168373ffffffffffffffffffffffffffffffffffffffff167f8c5be1e5ebec7d5bd14f71427d1e84f3dd0314c0f7b2291e5b200ac8c7c3b925836040516110f09190612054565b60405180910390a3505050565b600073ffffffffffffffffffffffffffffffffffffffff168373ffffffffffffffffffffffffffffffffffffffff16141561116d576040517f08c379a000000000000000000000000000000000000000000000000000000000815260040161116490612813565b60405180910390fd5b600073ffffffffffffffffffffffffffffffffffffffff168273ffffffffffffffffffffffffffffffffffffffff1614156111dd576040517f08c379a00000000000000000000000000000000000000000000000000000000081526004016111d4906128a5565b60405180910390fd5b80600860008573ffffffffffffffffffffffffffffffffffffffff1673ffffffffffffffffffffffffffffffffffffffff16815260200190815260200160002054101561125f576040517f08c379a000000000000000000000000000000000000000000000000000000000815260040161125690612937565b60405180910390fd5b80600860008573ffffffffffffffffffffffffffffffffffffffff1673ffffffffffffffffffffffffffffffffffffffff168152602001908152602001600020546112aa91906124a0565b600860008573ffffffffffffffffffffffffffffffffffffffff1673ffffffffffffffffffffffffffffffffffffffff1681526020019081526020016000208190555080600860008473ffffffffffffffffffffffffffffffffffffffff1673ffffffffffffffffffffffffffffffffffffffff1681526020019081526020016000205461133891906124d4565b600860008473ffffffffffffffffffffffffffffffffffffffff1673ffffffffffffffffffffffffffffffffffffffff168152602001908152602001600020819055508173ffffffffffffffffffffffffffffffffffffffff168373ffffffffffffffffffffffffffffffffffffffff167fddf252ad1be2c89b69c2b068fc378daa952ba7f163c4a11628f55a4df523b3ef836040516113d89190612054565b60405180910390a3505050565b600073ffffffffffffffffffffffffffffffffffffffff168273ffffffffffffffffffffffffffffffffffffffff161415611455576040517f08c379a000000000000000000000000000000000000000000000000000000000815260040161144c906129c9565b60405180910390fd5b8060045461146391906124d4565b60048190555080600860008473ffffffffffffffffffffffffffffffffffffffff1673ffffffffffffffffffffffffffffffffffffffff168152602001908152602001600020546114b491906124d4565b600860008473ffffffffffffffffffffffffffffffffffffffff1673ffffffffffffffffffffffffffffffffffffffff168152602001908152602001600020819055508173ffffffffffffffffffffffffffffffffffffffff16600073ffffffffffffffffffffffffffffffffffffffff167fddf252ad1be2c89b69c2b068fc378daa952ba7f163c4a11628f55a4df523b3ef836040516115559190612054565b60405180910390a35050565b600073ffffffffffffffffffffffffffffffffffffffff168273ffffffffffffffffffffffffffffffffffffffff1614156115d1576040517f08c379a00000000000000000000000000000000000000000000000000000000081526004016115c890612a5b565b60405180910390fd5b80600860008473ffffffffffffffffffffffffffffffffffffffff1673ffffffffffffffffffffffffffffffffffffffff168152602001908152602001600020541015611653576040517f08c379a000000000000000000000000000000000000000000000000000000000815260040161164a90612aed565b60405180910390fd5b80600860008473ffffffffffffffffffffffffffffffffffffffff1673ffffffffffffffffffffffffffffffffffffffff1681526020019081526020016000205461169e91906124a0565b600860008473ffffffffffffffffffffffffffffffffffffffff1673ffffffffffffffffffffffffffffffffffffffff16815260200190815260200160002081905550806004546116ef91906124a0565b600481905550600073ffffffffffffffffffffffffffffffffffffffff168273ffffffffffffffffffffffffffffffffffffffff167fddf252ad1be2c89b69c2b068fc378daa952ba7f163c4a11628f55a4df523b3ef836040516117539190612054565b60405180910390a35050565b600081116117a2576040517f08c379a000000000000000000000000000000000000000000000000000000000815260040161179990612b59565b60405180910390fd5b6000600260003373ffffffffffffffffffffffffffffffffffffffff1673ffffffffffffffffffffffffffffffffffffffff16815260200190815260200160002054905060004290506000821415611800576117fd33611d7c565b91505b600182815481106118145761181361264e565b5b906000526020600020906002020160010160405180608001604052803373ffffffffffffffffffffffffffffffffffffffff1681526020018581526020018381526020016000815250908060018154018082558091505060019003906000526020600020906004020160009091909190915060008201518160000160006101000a81548173ffffffffffffffffffffffffffffffffffffffff021916908373ffffffffffffffffffffffffffffffffffffffff16021790555060208201518160010155604082015181600201556060820151816003015550503373ffffffffffffffffffffffffffffffffffffffff167fb4caaf29adda3eefee3ad552a8e85058589bf834c7466cae4ee58787f70589ed84848460405161193793929190612b79565b60405180910390a2505050565b60006003548260200151610e1084604001514261196191906124a0565b61196b9190612bdf565b6119759190612c10565b61197f9190612bdf565b9050919050565b600080600260003373ffffffffffffffffffffffffffffffffffffffff1673ffffffffffffffffffffffffffffffffffffffff1681526020019081526020016000205490506000600182815481106119e1576119e061264e565b5b90600052602060002090600202016001018481548110611a0457611a0361264e565b5b90600052602060002090600402016040518060800160405290816000820160009054906101000a900473ffffffffffffffffffffffffffffffffffffffff1673ffffffffffffffffffffffffffffffffffffffff1673ffffffffffffffffffffffffffffffffffffffff168152602001600182015481526020016002820154815260200160038201548152505090508481602001511015611ada576040517f08c379a0000000000000000000000000000000000000000000000000000000008152600401611ad190612cdc565b60405180910390fd5b6000611ae582611944565b9050858260200151611af791906124a0565b826020018181525050600082602001511415611b995760018381548110611b2157611b2061264e565b5b90600052602060002090600202016001018581548110611b4457611b4361264e565b5b9060005260206000209060040201600080820160006101000a81549073ffffffffffffffffffffffffffffffffffffffff02191690556001820160009055600282016000905560038201600090555050611c38565b816020015160018481548110611bb257611bb161264e565b5b90600052602060002090600202016001018681548110611bd557611bd461264e565b5b9060005260206000209060040201600101819055504260018481548110611bff57611bfe61264e565b5b90600052602060002090600202016001018681548110611c2257611c2161264e565b5b9060005260206000209060040201600201819055505b8086611c4491906124d4565b935050505092915050565b600073ffffffffffffffffffffffffffffffffffffffff168173ffffffffffffffffffffffffffffffffffffffff161415611cbf576040517f08c379a0000000000000000000000000000000000000000000000000000000008152600401611cb690612d6e565b60405180910390fd5b8073ffffffffffffffffffffffffffffffffffffffff1660008054906101000a900473ffffffffffffffffffffffffffffffffffffffff1673ffffffffffffffffffffffffffffffffffffffff167f8be0079c531659141344cd1fd0a4f28419497f9722a3daafe3b4186f6b6457e060405160405180910390a3806000806101000a81548173ffffffffffffffffffffffffffffffffffffffff021916908373ffffffffffffffffffffffffffffffffffffffff16021790555050565b60006001808160018154018082558091505003906000526020600020905050600060018080549050611dae91906124a0565b90508260018281548110611dc557611dc461264e565b5b906000526020600020906002020160000160006101000a81548173ffffffffffffffffffffffffffffffffffffffff021916908373ffffffffffffffffffffffffffffffffffffffff16021790555080600260008573ffffffffffffffffffffffffffffffffffffffff1673ffffffffffffffffffffffffffffffffffffffff1681526020019081526020016000208190555080915050919050565b604051806040016040528060008152602001606081525090565b600081519050919050565b600082825260208201905092915050565b60005b83811015611eb5578082015181840152602081019050611e9a565b83811115611ec4576000848401525b50505050565b6000601f19601f8301169050919050565b6000611ee682611e7b565b611ef08185611e86565b9350611f00818560208601611e97565b611f0981611eca565b840191505092915050565b60006020820190508181036000830152611f2e8184611edb565b905092915050565b600080fd5b600073ffffffffffffffffffffffffffffffffffffffff82169050919050565b6000611f6682611f3b565b9050919050565b611f7681611f5b565b8114611f8157600080fd5b50565b600081359050611f9381611f6d565b92915050565b6000819050919050565b611fac81611f99565b8114611fb757600080fd5b50565b600081359050611fc981611fa3565b92915050565b60008060408385031215611fe657611fe5611f36565b5b6000611ff485828601611f84565b925050602061200585828601611fba565b9150509250929050565b60008115159050919050565b6120248161200f565b82525050565b600060208201905061203f600083018461201b565b92915050565b61204e81611f99565b82525050565b60006020820190506120696000830184612045565b92915050565b60008060006060848603121561208857612087611f36565b5b600061209686828701611f84565b93505060206120a786828701611f84565b92505060406120b886828701611fba565b9150509250925092565b600060ff82169050919050565b6120d8816120c2565b82525050565b60006020820190506120f360008301846120cf565b92915050565b60006020828403121561210f5761210e611f36565b5b600061211d84828501611f84565b91505092915050565b61212f81611f5b565b82525050565b600060208201905061214a6000830184612126565b92915050565b60006020828403121561216657612165611f36565b5b600061217484828501611fba565b91505092915050565b6000806040838503121561219457612193611f36565b5b60006121a285828601611f84565b92505060206121b385828601611f84565b9150509250929050565b6121c681611f99565b82525050565b600081519050919050565b600082825260208201905092915050565b6000819050602082019050919050565b61220181611f5b565b82525050565b60808201600082015161221d60008501826121f8565b50602082015161223060208501826121bd565b50604082015161224360408501826121bd565b50606082015161225660608501826121bd565b50505050565b60006122688383612207565b60808301905092915050565b6000602082019050919050565b600061228c826121cc565b61229681856121d7565b93506122a1836121e8565b8060005b838110156122d25781516122b9888261225c565b97506122c483612274565b9250506001810190506122a5565b5085935050505092915050565b60006040830160008301516122f760008601826121bd565b506020830151848203602086015261230f8282612281565b9150508091505092915050565b6000602082019050818103600083015261233681846122df565b905092915050565b6000806040838503121561235557612354611f36565b5b600061236385828601611fba565b925050602061237485828601611fba565b9150509250929050565b7f4e487b7100000000000000000000000000000000000000000000000000000000600052602260045260246000fd5b600060028204905060018216806123c557607f821691505b602082108114156123d9576123d861237e565b5b50919050565b7f446576546f6b656e3a20596f752063616e6e6f74207370656e6420746861742060008201527f6d756368206f6e2074686973206163636f756e74000000000000000000000000602082015250565b600061243b603483611e86565b9150612446826123df565b604082019050919050565b6000602082019050818103600083015261246a8161242e565b9050919050565b7f4e487b7100000000000000000000000000000000000000000000000000000000600052601160045260246000fd5b60006124ab82611f99565b91506124b683611f99565b9250828210156124c9576124c8612471565b5b828203905092915050565b60006124df82611f99565b91506124ea83611f99565b9250827fffffffffffffffffffffffffffffffffffffffffffffffffffffffffffffffff0382111561251f5761251e612471565b5b828201905092915050565b7f4f776e61626c653a206f6e6c79206f776e65722063616e2063616c6c2074686960008201527f732066756e6374696f6e00000000000000000000000000000000000000000000602082015250565b6000612586602a83611e86565b91506125918261252a565b604082019050919050565b600060208201905081810360008301526125b581612579565b9050919050565b7f446576546f6b656e3a2043616e6e6f74207374616b65206d6f7265207468616e60008201527f20796f75206f776e000000000000000000000000000000000000000000000000602082015250565b6000612618602883611e86565b9150612623826125bc565b604082019050919050565b600060208201905081810360008301526126478161260b565b9050919050565b7f4e487b7100000000000000000000000000000000000000000000000000000000600052603260045260246000fd5b7f446576546f6b656e3a20617070726f76652063616e6e6f7420626520646f6e6560008201527f2066726f6d207a65726f20616464726573730000000000000000000000000000602082015250565b60006126d9603283611e86565b91506126e48261267d565b604082019050919050565b60006020820190508181036000830152612708816126cc565b9050919050565b7f446576546f6b656e3a20617070726f76652063616e6e6f7420626520746f207a60008201527f65726f2061646472657373000000000000000000000000000000000000000000602082015250565b600061276b602b83611e86565b91506127768261270f565b604082019050919050565b6000602082019050818103600083015261279a8161275e565b9050919050565b7f446576546f6b656e3a207472616e736665722066726f6d207a65726f2061646460008201527f7265737300000000000000000000000000000000000000000000000000000000602082015250565b60006127fd602483611e86565b9150612808826127a1565b604082019050919050565b6000602082019050818103600083015261282c816127f0565b9050919050565b7f446576546f6b656e3a207472616e7366657220746f207a65726f20616464726560008201527f7373000000000000000000000000000000000000000000000000000000000000602082015250565b600061288f602283611e86565b915061289a82612833565b604082019050919050565b600060208201905081810360008301526128be81612882565b9050919050565b7f446576546f6b656e3a2063616e74207472616e73666572206d6f72652074686160008201527f6e20796f7572206163636f756e7420686f6c6473000000000000000000000000602082015250565b6000612921603483611e86565b915061292c826128c5565b604082019050919050565b6000602082019050818103600083015261295081612914565b9050919050565b7f446576546f6b656e3a2063616e6e6f74206d696e7420746f207a65726f20616460008201527f6472657373000000000000000000000000000000000000000000000000000000602082015250565b60006129b3602583611e86565b91506129be82612957565b604082019050919050565b600060208201905081810360008301526129e2816129a6565b9050919050565b7f446576546f6b656e3a2063616e6e6f74206275726e2066726f6d207a65726f2060008201527f6164647265737300000000000000000000000000000000000000000000000000602082015250565b6000612a45602783611e86565b9150612a50826129e9565b604082019050919050565b60006020820190508181036000830152612a7481612a38565b9050919050565b7f446576546f6b656e3a2043616e6e6f74206275726e206d6f7265207468616e2060008201527f746865206163636f756e74206f776e7300000000000000000000000000000000602082015250565b6000612ad7603083611e86565b9150612ae282612a7b565b604082019050919050565b60006020820190508181036000830152612b0681612aca565b9050919050565b7f43616e6e6f74207374616b65206e6f7468696e67000000000000000000000000600082015250565b6000612b43601483611e86565b9150612b4e82612b0d565b602082019050919050565b60006020820190508181036000830152612b7281612b36565b9050919050565b6000606082019050612b8e6000830186612045565b612b9b6020830185612045565b612ba86040830184612045565b949350505050565b7f4e487b7100000000000000000000000000000000000000000000000000000000600052601260045260246000fd5b6000612bea82611f99565b9150612bf583611f99565b925082612c0557612c04612bb0565b5b828204905092915050565b6000612c1b82611f99565b9150612c2683611f99565b9250817fffffffffffffffffffffffffffffffffffffffffffffffffffffffffffffffff0483118215151615612c5f57612c5e612471565b5b828202905092915050565b7f5374616b696e673a2043616e6e6f74207769746864726177206d6f726520746860008201527f616e20796f752068617665207374616b65640000000000000000000000000000602082015250565b6000612cc6603283611e86565b9150612cd182612c6a565b604082019050919050565b60006020820190508181036000830152612cf581612cb9565b9050919050565b7f4f776e61626c653a206e6577206f776e657220697320746865207a65726f206160008201527f6464726573730000000000000000000000000000000000000000000000000000602082015250565b6000612d58602683611e86565b9150612d6382612cfc565b604082019050919050565b60006020820190508181036000830152612d8781612d4b565b905091905056fea26469706673582212200ee7013c12599de176b33b89022aa0ddc602e9e4e3b1f324c1f0b4864041372664736f6c63430008090033",
  "immutableReferences": {},
  "source": "// SPDX-License-Identifier: MIT\npragma solidity ^0.8.9;\n\nimport \"./Ownable.sol\";\nimport \"./Stakable.sol\";\n\n/**\n * @notice DevToken is a development token that we use to learn how to code solidity\n * and what BEP-20 interface requires\n */\ncontract DevToken is Ownable, Stakeable {\n    /**\n     * @notice Our Tokens required variables that are needed to operate everything\n     */\n    uint256 private _totalSupply;\n    uint8 private _decimals;\n    string private _symbol;\n    string private _name;\n\n    /**\n     * @notice _balances is a mapping that contains a address as KEY\n     * and the balance of the address as the value\n     */\n    mapping(address => uint256) private _balances;\n    /**\n     * @notice _allowances is used to manage and control allownace\n     * An allowance is the right to use another accounts balance, or part of it\n     */\n    mapping(address => mapping(address => uint256)) private _allowances;\n\n    /**\n     * @notice Events are created below.\n     * Transfer event is a event that notify the blockchain that a transfer of assets has taken place\n     *\n     */\n    event Transfer(address indexed from, address indexed to, uint256 value);\n    /**\n     * @notice Approval is emitted when a new Spender is approved to spend Tokens on\n     * the Owners account\n     */\n    event Approval(\n        address indexed owner,\n        address indexed spender,\n        uint256 value\n    );\n\n    /**\n     * @notice constructor will be triggered when we create the Smart contract\n     * _name = name of the token\n     * _short_symbol = Short Symbol name for the token\n     * token_decimals = The decimal precision of the Token, defaults 18\n     * _totalSupply is how much Tokens there are totally\n     */\n    constructor(\n        string memory token_name,\n        string memory short_symbol,\n        uint8 token_decimals,\n        uint256 token_totalSupply\n    ) {\n        _name = token_name;\n        _symbol = short_symbol;\n        _decimals = token_decimals;\n        _totalSupply = token_totalSupply;\n\n        // Add all the tokens created to the creator of the token\n        _balances[msg.sender] = _totalSupply;\n\n        // Emit an Transfer event to notify the blockchain that an Transfer has occured\n        emit Transfer(address(0), msg.sender, _totalSupply);\n    }\n\n    /**\n     * @notice decimals will return the number of decimal precision the Token is deployed with\n     */\n    function decimals() external view returns (uint8) {\n        return _decimals;\n    }\n\n    /**\n     * @notice symbol will return the Token's symbol\n     */\n    function symbol() external view returns (string memory) {\n        return _symbol;\n    }\n\n    /**\n     * @notice name will return the Token's symbol\n     */\n    function name() external view returns (string memory) {\n        return _name;\n    }\n\n    /**\n     * @notice totalSupply will return the tokens total supply of tokens\n     */\n    function totalSupply() external view returns (uint256) {\n        return _totalSupply;\n    }\n\n    /**\n     * @notice balanceOf will return the account balance for the given account\n     */\n    function balanceOf(address account) external view returns (uint256) {\n        return _balances[account];\n    }\n\n    /**\n     * @notice _mint will create tokens on the address inputted and then increase the total supply\n     *\n     * It will also emit an Transfer event, with sender set to zero address (adress(0))\n     *\n     * Requires that the address that is recieveing the tokens is not zero address\n     */\n    function _mint(address account, uint256 amount) internal {\n        require(account != address(0), \"DevToken: cannot mint to zero address\");\n\n        // Increase total supply\n        _totalSupply = _totalSupply + (amount);\n        // Add amount to the account balance using the balance mapping\n        _balances[account] = _balances[account] + amount;\n        // Emit our event to log the action\n        emit Transfer(address(0), account, amount);\n    }\n\n    /**\n     * @notice _burn will destroy tokens from an address inputted and then decrease total supply\n     * An Transfer event will emit with receiever set to zero address\n     *\n     * Requires\n     * - Account cannot be zero\n     * - Account balance has to be bigger or equal to amount\n     */\n    function _burn(address account, uint256 amount) internal {\n        require(\n            account != address(0),\n            \"DevToken: cannot burn from zero address\"\n        );\n        require(\n            _balances[account] >= amount,\n            \"DevToken: Cannot burn more than the account owns\"\n        );\n\n        // Remove the amount from the account balance\n        _balances[account] = _balances[account] - amount;\n        // Decrease totalSupply\n        _totalSupply = _totalSupply - amount;\n        // Emit event, use zero address as reciever\n        emit Transfer(account, address(0), amount);\n    }\n\n    /**\n     * @notice burn is used to destroy tokens on an address\n     *\n     * See {_burn}\n     * Requires\n     *   - msg.sender must be the token owner\n     *\n     */\n    function burn(address account, uint256 amount)\n        public\n        onlyOwner\n        returns (bool)\n    {\n        _burn(account, amount);\n        return true;\n    }\n\n    /**\n     * @notice mint is used to create tokens and assign them to msg.sender\n     *\n     * See {_mint}\n     * Requires\n     *   - msg.sender must be the token owner\n     *\n     */\n    function mint(address account, uint256 amount)\n        public\n        onlyOwner\n        returns (bool)\n    {\n        _mint(account, amount);\n        return true;\n    }\n\n    /**\n     * @notice transfer is used to transfer funds from the sender to the recipient\n     * This function is only callable from outside the contract. For internal usage see\n     * _transfer\n     *\n     * Requires\n     * - Caller cannot be zero\n     * - Caller must have a balance = or bigger than amount\n     *\n     */\n    function transfer(address recipient, uint256 amount)\n        external\n        returns (bool)\n    {\n        _transfer(msg.sender, recipient, amount);\n        return true;\n    }\n\n    /**\n     * @notice _transfer is used for internal transfers\n     *\n     * Events\n     * - Transfer\n     *\n     * Requires\n     *  - Sender cannot be zero\n     *  - recipient cannot be zero\n     *  - sender balance most be = or bigger than amount\n     */\n    function _transfer(\n        address sender,\n        address recipient,\n        uint256 amount\n    ) internal {\n        require(sender != address(0), \"DevToken: transfer from zero address\");\n        require(recipient != address(0), \"DevToken: transfer to zero address\");\n        require(\n            _balances[sender] >= amount,\n            \"DevToken: cant transfer more than your account holds\"\n        );\n\n        _balances[sender] = _balances[sender] - amount;\n        _balances[recipient] = _balances[recipient] + amount;\n\n        emit Transfer(sender, recipient, amount);\n    }\n\n    /**\n     * @notice getOwner just calls Ownables owner function.\n     * returns owner of the token\n     *\n     */\n    function getOwner() external view returns (address) {\n        return owner();\n    }\n\n    /**\n     * @notice allowance is used view how much allowance an spender has\n     */\n    function allowance(address owner, address spender)\n        external\n        view\n        returns (uint256)\n    {\n        return _allowances[owner][spender];\n    }\n\n    /**\n     * @notice approve will use the senders address and allow the spender to use X amount of tokens on his behalf\n     */\n    function approve(address spender, uint256 amount) external returns (bool) {\n        _approve(msg.sender, spender, amount);\n        return true;\n    }\n\n    /**\n     * @notice _approve is used to add a new Spender to a Owners account\n     *\n     * Events\n     *   - {Approval}\n     *\n     * Requires\n     *   - owner and spender cannot be zero address\n     */\n    function _approve(\n        address owner,\n        address spender,\n        uint256 amount\n    ) internal {\n        require(\n            owner != address(0),\n            \"DevToken: approve cannot be done from zero address\"\n        );\n        require(\n            spender != address(0),\n            \"DevToken: approve cannot be to zero address\"\n        );\n        // Set the allowance of the spender address at the Owner mapping over accounts to the amount\n        _allowances[owner][spender] = amount;\n\n        emit Approval(owner, spender, amount);\n    }\n\n    /**\n     * @notice transferFrom is uesd to transfer Tokens from a Accounts allowance\n     * Spender address should be the token holder\n     *\n     * Requires\n     *   - The caller must have a allowance = or bigger than the amount spending\n     */\n    function transferFrom(\n        address spender,\n        address recipient,\n        uint256 amount\n    ) external returns (bool) {\n        // Make sure spender is allowed the amount\n        require(\n            _allowances[spender][msg.sender] >= amount,\n            \"DevToken: You cannot spend that much on this account\"\n        );\n        // Transfer first\n        _transfer(spender, recipient, amount);\n        // Reduce current allowance so a user cannot respend\n        _approve(\n            spender,\n            msg.sender,\n            _allowances[spender][msg.sender] - amount\n        );\n        return true;\n    }\n\n    /**\n     * @notice increaseAllowance\n     * Adds allowance to a account from the function caller address\n     */\n    function increaseAllowance(address spender, uint256 amount)\n        public\n        returns (bool)\n    {\n        _approve(\n            msg.sender,\n            spender,\n            _allowances[msg.sender][spender] + amount\n        );\n        return true;\n    }\n\n    /**\n     * @notice decreaseAllowance\n     * Decrease the allowance on the account inputted from the caller address\n     */\n    function decreaseAllowance(address spender, uint256 amount)\n        public\n        returns (bool)\n    {\n        _approve(\n            msg.sender,\n            spender,\n            _allowances[msg.sender][spender] - amount\n        );\n        return true;\n    }\n\n    /**\n     * Add functionality like burn to the _stake afunction\n     *\n     */\n    function stake(uint256 _amount) public {\n        // Make sure staker actually is good for it\n        require(\n            _amount < _balances[msg.sender],\n            \"DevToken: Cannot stake more than you own\"\n        );\n\n        _stake(_amount);\n        // Burn the amount of tokens on the sender\n        _burn(msg.sender, _amount);\n    }\n\n    /**\n     * @notice withdrawStake is used to withdraw stakes from the account holder\n     */\n    function withdrawStake(uint256 amount, uint256 stake_index) public {\n        uint256 amount_to_mint = _withdrawStake(amount, stake_index);\n        // Return staked tokens to user\n        _mint(msg.sender, amount_to_mint);\n    }\n}\n",
  "sourcePath": "/home/sansil/Documents/smart-contracts/dev-token/contracts/DevToken.sol",
  "compiler": {
    "name": "solc",
    "version": "0.8.9+commit.e5eed63a.Emscripten.clang"
  },
  "schemaVersion": "3.4.3",
  "updatedAt": "2021-11-01T18:18:31.019Z",
  "devdoc": {
    "kind": "dev",
    "methods": {},
    "version": 1
  },
  "userdoc": {
    "events": {
      "Approval(address,address,uint256)": {
        "notice": "Approval is emitted when a new Spender is approved to spend Tokens on the Owners account"
      },
      "OwnershipTransferred(address,address)": {
        "notice": "Event OwnershipTransferred is used to log that a ownership change of the token has occured"
      },
      "Staked(address,uint256,uint256,uint256)": {
        "notice": "Staked event is triggered whenever a user stakes tokens, address is indexed to make it filterable"
      },
      "Transfer(address,address,uint256)": {
        "notice": "Events are created below. Transfer event is a event that notify the blockchain that a transfer of assets has taken place"
      }
    },
    "kind": "user",
    "methods": {
      "allowance(address,address)": {
        "notice": "allowance is used view how much allowance an spender has"
      },
      "approve(address,uint256)": {
        "notice": "approve will use the senders address and allow the spender to use X amount of tokens on his behalf"
      },
      "balanceOf(address)": {
        "notice": "balanceOf will return the account balance for the given account"
      },
      "burn(address,uint256)": {
        "notice": "burn is used to destroy tokens on an address See {_burn} Requires   - msg.sender must be the token owner"
      },
      "constructor": {
        "notice": "constructor will be triggered when we create the Smart contract _name = name of the token _short_symbol = Short Symbol name for the token token_decimals = The decimal precision of the Token, defaults 18 _totalSupply is how much Tokens there are totally"
      },
      "decimals()": {
        "notice": "decimals will return the number of decimal precision the Token is deployed with"
      },
      "decreaseAllowance(address,uint256)": {
        "notice": "decreaseAllowance Decrease the allowance on the account inputted from the caller address"
      },
      "getOwner()": {
        "notice": "getOwner just calls Ownables owner function. returns owner of the token"
      },
      "hasStake(address)": {
        "notice": "hasStake is used to check if a account has stakes and the total amount along with all the seperate stakes"
      },
      "increaseAllowance(address,uint256)": {
        "notice": "increaseAllowance Adds allowance to a account from the function caller address"
      },
      "mint(address,uint256)": {
        "notice": "mint is used to create tokens and assign them to msg.sender See {_mint} Requires   - msg.sender must be the token owner"
      },
      "name()": {
        "notice": "name will return the Token's symbol"
      },
      "owner()": {
        "notice": "owner() returns the currently assigned owner of the Token "
      },
      "renounceOwnership()": {
        "notice": "renounceOwnership will set the owner to zero address This will make the contract owner less, It will make ALL functions with onlyOwner no longer callable. There is no way of restoring the owner"
      },
      "stake(uint256)": {
        "notice": "Add functionality like burn to the _stake afunction"
      },
      "symbol()": {
        "notice": "symbol will return the Token's symbol"
      },
      "totalSupply()": {
        "notice": "totalSupply will return the tokens total supply of tokens"
      },
      "transfer(address,uint256)": {
        "notice": "transfer is used to transfer funds from the sender to the recipient This function is only callable from outside the contract. For internal usage see _transfer Requires - Caller cannot be zero - Caller must have a balance = or bigger than amount"
      },
      "transferFrom(address,address,uint256)": {
        "notice": "transferFrom is uesd to transfer Tokens from a Accounts allowance Spender address should be the token holder Requires   - The caller must have a allowance = or bigger than the amount spending"
      },
      "transferOwnership(address)": {
        "notice": "transferOwnership will assign the {newOwner} as owner"
      },
      "withdrawStake(uint256,uint256)": {
        "notice": "withdrawStake is used to withdraw stakes from the account holder"
      }
    },
    "notice": "DevToken is a development token that we use to learn how to code solidity and what BEP-20 interface requires",
    "version": 1
  }
}